:400000000010002093030000910300009103000070B572B60024384E062060438519284600F012F969792A790902114300F008F9641CE4B2022CEFD3FF2130480906016028
:400040002F49C160992101612E48C02101601B21C90481602C48012101602C4981602C48022101603122826099202A4A000410601063294802780A430270017806221143FC
:40008000017000F001F870BDF8B5244C2068012189040843206022483025027B417B214B03201B6804E0F1184A788978401E04D4460086199F5DAF42F5D21B4DEA612962D3
:4000C00017482030407FA862052000F021F93520E8621648202181601021C1608005A0606060400B20601349114808601149124840310860F8BD00006C0E000000000140BE
:40010000FFEE000000000440000304408E6D00000004044000500F4000700F4000010B40C0F1FF0F3C01002000FF0B40000202400100008000000240A001008000F002F8E2
:4001400000F040F80CA030C8083824182D18A246671EAB4654465D46AC4201D100F032F87E460F3E0FCCB6460126334200D0FB1AA246AB4633431847000D0000300D00001C
:40018000103A02D378C878C1FAD8520701D330C830C101D504680C60704700000023002400250026103A01D378C1FBD8520700D330C100D50B6070471FB5C046C0461FBDCE
:4001C00010B510BD03488546FFF7F6FF00F086F800F04BF80010002003B4FFF7F1FF03BC00F04AF800000000801C800804D000BF401EFDD100BF00BF7047EFF3108072B65B
:40020000704780F31088704701E004C0091F0429FBD28B0701D50280801CC90700D00270704700290BD0C30702D00270401C491E022904D3830702D50280801C891EE3E768
:400240000022EEE70022DFE70378C2781946437812061B0219438378C0781B04194311430902090A0006084370470446C046C0462046FFF7B1FF000001491820ABBEFEE7E5
:4002800026000200704770B58C180578401C6B075B0F01D10378401C2A1106D10278401C03E00678401C0E70491C5B1EF9D12B0705D40023521E0DD40B70491CFAE70378B2
:4002C000401CCB1A921C03E01D785B1C0D70491C521EF9D5A142D8D3002070BD00F01CFA00F0CCFAFEE7000070B501260446074DF60303E0E868FFF777FFA41BB442F9D87C
:40030000A8686043FFF770FF70BD00004001002010B5034909784843FFF766FF10BD00004001002010B5044600F06FFC200A00F011F8E0B200F00EF8002000F00BF8012028
:4003400000F008F8002000F005F8044600F058FC204610BD10B540B200F060FCC0B210BD70B50D46044600F050FC200AFFF7F2FFE0B2FFF7EFFF8020FFF7ECFF0120FFF760
:40038000E9FF2846FFF7E6FF00F03AFC012070BDFEE710B5FFF7D2FE10BD10B5962000F0F1FC10BD044A1168EF23C0071940C00E0843106070470000000304400248016803
:4003C000C2031143016070470000074010480F490160104901620F480F49F630086007224A600E490860002048600D4988600C49403188600A49C03188600949803188601E
:400400000849886007494039886070470300000100000740110000800003074000020740800E0740C00F0740024880680007000F7047000000030740014800687047000010
:400440004003074004498A681207120F082AFAD001494031086070470002074010B505480178002903D101210170FFF7AFFFFFF7A5FF10BD500100201CB52B492B4C0020E7
:400480000A5C2254401CC0B20628F9D328480178A1714178E17181782172C078607225480178A1734178E17381782174C078607421480178A1724178E17281782173C07895
:4004C00060731A4800F026FB18480A3000F052FA16480E3000F0FAFAA01D00F036FB174817490078A07517480A7882704A78C2708A780271C978417113490988018013483E
:4005000000F0FDFA032000F0F4FA1149114800F091FB684600F080F8684600F091F8684600F042F81CBD000007010020580100200D01002011010020150100200601002058
:40054000210100202C01002026010020701700001D0100201901002070B50502094810212C18A0B2FFF7FCFEA0B2FFF7DBFE0028FAD10448FF21401C281880B2FFF7F0FE40
:4005800070BD000001400000010210B505480C18A0B20821FFF7E4FEA0B2FFF7C3FE0028FAD110BD0140000010B504460120FFF7B9FE20700220FFF7B5FE60700320FFF716
:4005C000B1FEA0700420FFF7ADFEE07010BD000001494000085A7047FE00002001494000085A7047DE00002001494000085A7047EE00002001494000085A7047F60000208E
:4006000001494000085A7047D600002001494000085A7047E600002010B504460F20FFF781FE20701020FFF77DFE60701120FFF779FEA0701220FFF775FEE07010BD00005E
:4006400004490A7802704A7842708A788270C978C1707047CA000020F8B51049000247180024491C4618B8B2FFF75CFE0546B0B2FFF758FE2902401805042D0C09D0B8B2B5
:40068000FFF750FE0446B0B2FFF74CFE2102401884B2AC42E7D12046F8BD0000264000000349000210B5401880B2FFF73BFE10BD03400000F8B51049000247180024491C66
:4006C0004618B8B2FFF72EFE0546B0B2FFF72AFE2902401805042D0C09D0B8B2FFF722FE0446B0B2FFF71EFE2102401884B2AC42E7D12046F8BD000020400000024A014604
:40070000505C431C53547047D2000020014A002111547047D200002010B500200B4A0C4901E0042802D28300D35800E0094B8400401C0B513028F4D3FFF76AFC064900206C
:40074000086001208107086010BD0000000000000000002091030000C000002010B504020B48201880B2FFF7DDFD132801D0002010BD07480221801E2418A0B2FFF7F0FDCD
:40078000A0B2FFF7CFFD0028FAD1012010BD000003400000F8B50646364800900C463046FFF77EFF0027344D00284FD013285CD00124E402172811D01C2842D13046FFF77B
:4007C0004BFF020006D0A24200D922463046009900F090F83046FFF7D7FE44E0A85D012801D10220A8553046FFF736FF020028D0A24200D922463046009900F07BF805462A
:40080000024600233046009900F0C0F80446A84217D03046FFF77AFF7D27FF000FE03046FFF76CFF03280DD801232A463046009900F0ACF8001984B2384600F0A3FAAC429E
:40084000EDD1F8BD3046FFF787FEFEE7A85D002801D10120A855002322460121304600F087F90028EDD1AF55F8BD3046FFF776FFF8BD00006F01002028010020FFF78DFDF1
:4008800000F0C8F9FFF7F8FD03480168416017210020FFF77FFFFAE734010020F8B515461C460A460646FFF799FE104003463046FFF78EFEC2183046FFF796FE191988424B
:4008C00011D23046FFF790FEC01A87B290B23A46294600F05BFAE01B82B2EB193046FFF777FE194602E090B22246294600F04EFAF8BD000070B5054600201446002A0FD044
:40090000284600F011F8074829020D18A8B24021FFF726FDA8B2FFF705FD0028FAD1204670BD000001400000F7B50746050210482E18B0B2FFF7F6FC04460D48401C2D189C
:40094000A8B2FFF7EFFC2102401884B221463846029B019AFFF7A2FF0298201884B2210AB0B2FFF7FDFCE1B2A8B2FFF7F9FCFEBD28400000044902780A7042784A708278A9
:400980008A70C078C8707047CA000020FFB581B00198002405021E461746002B20D1FFF735FEB84204D20198FFF730FE044600E03C4632482F180198FFF77CFE0090B8B280
:4009C000FFF7B0FC172803D01C2801D0002402E00098A042EFD322460299019800F050F8264348D025481F302818009080B2FFF799FC0446214820302E18B0B2FFF792FC1F
:400A00002102401884B21D482021801E2F18B8B2FFF7A6FCB8B2FFF785FC0028FAD11748401E2D18A8B2FFF77DFCC0060AD4A8B2FFF778FC0028F5D10198FFF78DFD00204A
:400A400005B0F0BDA8B21021FFF78AFC009880B2FFF768FC0546B0B2FFF764FC2902401880B2A04201D9001B04E00021C943091B0818401C84B22046E2E700000340000001
:400A8000F7B50746050210482E18B0B2FFF74AFC04460D48401C2D18A8B2FFF743FC2102401884B222463846029B019900F0B4F90298201884B2210AB0B2FFF751FCE1B255
:400AC000A8B2FFF74DFCFEBD2440000010B5044601780120FFF744FC61780220FFF740FCA1780320FFF73CFCE1780420FFF738FC10BD10B501461920FFF732FC10BD10B559
:400B00000446010A1720FFF72BFCE1B21820FFF727FC10BD10B5044601780920FFF720FC61780A20FFF71CFCA1780B20FFF718FCE1780C20FFF714FC21790D20FFF710FCE5
:400B400061790E20FFF70CFC10BD10B5044601780F20FFF705FC61781020FFF701FCA1781120FFF7FDFBE1781220FFF7F9FB10BDF8B51E4615460C460746012909D0022C42
:400B800007D0032C05D0042C03D0052C01D00020F8BDFFF7E1FC2146314301203E028003301880B2FFF7DCFB13491348491C30187418002D05D0290A80B2FFF7D1FBE9B2F3
:400BC00009E00E4D80B22988491C89B22980090AFFF7C6FB2978A0B2FFF7C2FB06480121C01E3418A0B2FFF7BBFBA0B2FFF79AFB0028FAD10120F8BD04400000C4000020AF
:400C000010B50120FFF7CEFB10BD10B50020FFF7C9FB10BD10B5FFF721FC10BD10B5FFF711FCFFF701FC0028FBD0FFF705FC40B210BD0000F3B50121504881B0C903002648
:400C4000018003218903083035460180344601982702015D4A48381880B2FFF781FB0298015D4748401E381880B2FFF779FB43490023103960000A460B5208321352012356
:400C80009B039E4229DC019B1B5D042B14D004DC012B07D0022B20D109E0082B11D0102B1BD113E001239B020B525B1E12E00123DB020B525B1E0DE001231B030B525B1E0D
:400CC00008E001235B030B525B1E03E001239B030B525B1E294F203F3B5201239B039D422BDC029F3F5D042F14D004DC012F07D0022F22D109E0082F14D0102F1DD116E0A7
:400D000001239B0213525B1E14E00123DB0213525B1E0FE001231B0313525F1E174B183B1F520AE001235B0313525B1E02E01352134B203B114F183F3B520B5A9B191EB291
:400D4000135A5B191DB2002C12D00C4F4118C319203B2039DB8BC98B82185B183B52394608314318203B203ADB8BD28B9A180A52641C24B2042C00DA69E7FEBDF600002003
:400D80001F40000010B5FFF7AFFA10BDF8B515460F4606460024FFF738FF300AFFF7DAFAF0B2FFF7D7FA6804400EFFF7D3FAE8B2FFF7D0FA05E00020FFF7CCFA3855641C97
:400DC000A4B2AC42F7D3FFF71BFF2846F8BDF8B5002415460F460646002A10D0FFF715FF300AFFF7B7FAF0B2FFF7B4FA6804400E8030FFF7AFFAE8B2FFF7ACFA06E0002065
:400E0000F8BD385DFFF7A6FA641CA4B2AC42F8D3FFF7F6FE2846F8BDF8B51C460D460646FFF7EEFB104003463046FFF7E3FBC2183046FFF7EBFB1919884211D23046FFF74F
:400E4000E5FBC01A87B290B23A462946FFF7BFFFE01B82B2EB193046FFF7CCFB194602E090B222462946FFF7B2FFF8BD00300F40000400400F400004A80E00000000002092
:400E8000C000000080010000680F0000C40000209400000080010000FC0F000058010020180800009C01000000000000000000000000000000000000000000000000000040
:400EC00000000000000000000000000000000000000000000000000000000000000000000000000000000000000000000000000000000000000000000000000000000000F2
:400F000000000000000000000000000000000000000000000000000000000000000000000000000000000000000000000000000000000000000000000000000000000000B1
:400F40000000000000000000000000000000000000000000000000000000000000000000000000000000000000000000000000000000000000000000000000000000000071
:400F8000000000000000000000000000000000000000000000000000000000000000000000000000000000000000000050C2972904A9FE1646C0A80079FFFFFF0002020274
:400FC0000202020202C0A8016400B80B0000000000000000000000000000000000000000C0F1FF0F30000000006CDC0280BB00000000C05D000000000000000000000000C6
:4010000000000000000000000000000000000000000000000000000000000000000000000000000000000000000000000000000000000000000000000000000000000000B0
:401040000000000000000000000000000000000000000000000000000000000000000000000000000000000000000000000000000000000000000000000000000000000070
:401080000000000000000000000000000000000000000000000000000000000000000000000000000000000000000000000000000000000000000000000000000000000030
:4010C00000000000000000000000000000000000000000000000000000000000000000000000000000000000000000000000000000000000000000000000000000000000F0
:0200000490303A
:02000000C4AA90
:0200000490402A
:200000000000000000000000000000000000000000000000000000000000000000000000E0
:0200000490501A
:0C000000000204C81193110104CDD63D8C
:0200000490600A
:0100000001FE
:00000001FF