:400000000010002093030000910300009103000070B572B60024384E062060438519284600F012F969792A790902114300F008F9641CE4B2022CEFD3FF2130480906016028
:400040002F49C160992101612E48C02101601B21C90481602C48012101602C4981602C48022101603122826099202A4A000410601063294802780A430270017806221143FC
:40008000017000F001F870BDF8B5244C2168012080040143216022483025037B467B214903200A6804E089184B788E78401E04D441004118575CAF42F5D21B4DEB612E62DF
:4000C00017482030407FA862052000F021F93520E8621648202181601021C1608005A0606060400B20601349114808601149124840310860F8BD0000680E000000000140C2
:40010000FFEE000000000440000304408E6D00000004044000500F4000700F4000010B40C0F1FF0F3C01002000FF0B40000202400100008000000240A001008000F002F8E2
:4001400000F040F80CA030C8083824182D18A246671EAB4654465D46AC4201D100F032F87E460F3E0FCCB6460126334200D0FB1AA246AB4633431847FC0C00002C0D000025
:40018000103A02D378C878C1FAD8520701D330C830C101D504680C60704700000023002400250026103A01D378C1FBD8520700D330C100D50B6070471FB5C046C0461FBDCE
:4001C00010B510BD03488546FFF7F6FF00F086F800F04BF80010002003B4FFF7F1FF03BC00F04AF800000000801C800804D000BF401EFDD100BF00BF7047EFF3108072B65B
:40020000704780F31088704701E004C0091F0429FBD28B0701D50280801CC90700D00270704700290BD0C30702D00270401C491E022904D3830702D50280801C891EE3E768
:400240000022EEE70022DFE70378C2781946437812061B0219438378C0781B04194311430902090A0006084370470446C046C0462046FFF7B1FF000001491820ABBEFEE7E5
:4002800026000200704770B58C180578401C6B075B0F01D10378401C2A1106D10278401C03E00678401C0E70491C5B1EF9D12B0705D40023521E0DD40B70491CFAE70378B2
:4002C000401CCB1A921C03E01D785B1C0D70491C521EF9D5A142D8D3002070BD00F01CFA00F0CCFAFEE7000070B501260446074DF60303E0E868FFF777FFA41BB442F9D87C
:40030000A8686043FFF770FF70BD00004001002010B5034909784843FFF766FF10BD00004001002010B5044600F06FFC200A00F011F8E0B200F00EF8002000F00BF8012028
:4003400000F008F8002000F005F8044600F058FC204610BD10B540B200F060FCC0B210BD70B50D46044600F050FC200AFFF7F2FFE0B2FFF7EFFF8020FFF7ECFF0120FFF760
:40038000E9FF2846FFF7E6FF00F03AFC012070BDFEE710B5FFF7D2FE10BD10B5962000F0EFFC10BD044A1168EF23C0071940C00E0843106070470000000304400248016805
:4003C000C2031143016070470000074010480F490160104901620F490F48F6310160072242600E4A1160002050600D4988600C49403188600A49C03188600949803188601A
:400400000849886007494039886070470300000100000740110000800003074000020740800E0740C00F0740024880680007000F7047000000030740014800687047000010
:400440004003074004498A681207120F082AFAD001494031086070470002074010B505480178002903D101210170FFF7AFFFFFF7A5FF10BD500100201CB52B482B4C0021E7
:40048000425C6254491CC9B20629F9D328480178A1714178E17181782172C078607225480178A1734178E17381782174C078607421480178A1724178E17281782173C0780A
:4004C00060731A4800F026FB18480A3000F052FA16480E3000F0FAFAA01D00F036FB174817490078A07517480A7882704A78C2708A780271C978417113490988018013483E
:4005000000F0FDFA032000F0F4FA1149114800F091FB684600F080F8684600F091F8684600F042F81CBD000007010020580100200D01002011010020150100200601002058
:40054000210100202C01002026010020701700001D0100201901002070B50502094810212C18A0B2FFF7FCFEA0B2FFF7DBFE0028FAD10448FF21401C281880B2FFF7F0FE40
:4005800070BD000001400000010210B505480C18A0B20821FFF7E4FEA0B2FFF7C3FE0028FAD110BD0140000010B504460120FFF7B9FE20700220FFF7B5FE60700320FFF716
:4005C000B1FEA0700420FFF7ADFEE07010BD000001494000085A7047FE00002001494000085A7047DE00002001494000085A7047EE00002001494000085A7047F60000208E
:4006000001494000085A7047D600002001494000085A7047E600002010B504460F20FFF781FE20701020FFF77DFE60701120FFF779FEA0701220FFF775FEE07010BD00005E
:4006400004490A7802704A7842708A788270C978C1707047CA000020F8B51049000247180025491C4618B8B2FFF75CFE0446B0B2FFF758FE210240180404240C09D0B8B2C7
:40068000FFF750FE0546B0B2FFF74CFE2902401885B2A542E7D12846F8BD0000264000000349000210B5401880B2FFF73BFE10BD03400000F8B51049000247180025491C5A
:4006C0004618B8B2FFF72EFE0446B0B2FFF72AFE210240180404240C09D0B8B2FFF722FE0546B0B2FFF71EFE2902401885B2A542E7D12846F8BD000020400000024A01460C
:40070000505C431C53547047D2000020014A002111547047D200002010B500200B4B0C4A01E0042802D28100595800E009498400401C11513028F4D3FFF76AFC06490020E2
:40074000086001208107086010BD0000000000000000002091030000C000002010B504020B48201880B2FFF7DDFD132801D0002010BD07480221801E2418A0B2FFF7F0FDCD
:40078000A0B2FFF7CFFD0028FAD1012010BD000003400000F8B50546364800900E462846FFF77EFF0027344C00284FD013285CD00126F602172811D01C2842D12846FFF777
:4007C0004BFF020006D0B24200D932462846009900F090F82846FFF7D7FE44E0605D012801D1022060552846FFF736FF020028D0B24200D932462846009900F07BF8064699
:40080000024600232846009900F0C0F80446B04217D02846FFF77AFF7D27FF000FE02846FFF76CFF03280DD8012332462846009900F0ACF8001984B2384600F0A1FAB442A8
:40084000EDD1F8BD2846FFF787FEFEE7605D002801D101206055002332460121284600F087F90028EDD16755F8BD2846FFF776FFF8BD00006F01002028010020FFF78DFDD1
:4008800000F0C8F9FFF7F8FD03480168416017210020FFF77FFFFAE734010020F8B51C4615460B460646FFF799FE02461A403046FFF78EFE83183046FFF796FE1119884288
:4008C00011D23046FFF790FE801A87B298B23A46294600F059FAE01B82B2EB193046FFF777FE194602E098B22246294600F04CFAF8BD000070B5044600201546002A0FD078
:40090000204600F011F8074821020C18A0B24021FFF726FDA0B2FFF705FD0028FAD1284670BD000001400000F7B50446050210482E18B0B2FFF7F6FC07460D48401C2D18B5
:40094000A8B2FFF7EFFC3902401887B239462046029B019AFFF7A2FF0298381884B2210AB0B2FFF7FDFCE1B2A8B2FFF7F9FCFEBD28400000044902780A7042784A70827876
:400980008A70C078C8707047CA000020FFB581B00198002405021F461646002B20D1FFF735FEB04204D20198FFF730FE044600E0344632482E180198FFF77CFE0090B0B299
:4009C000FFF7B0FC172803D01C2801D0002402E00098A042EFD322460299019800F050F8274348D025481F302818009080B2FFF799FC0446214820302F18B8B2FFF792FC15
:400A00002102401886B21D482021801E2C18A0B2FFF7A6FCA0B2FFF785FC0028FAD11748401E2C18A0B2FFF77DFCC0060AD4A0B2FFF778FC0028F5D10198FFF78DFD00208C
:400A400005B0F0BDA0B21021FFF78AFC009880B2FFF768FC0446B8B2FFF764FC2102401880B2B04201D9801B04E00021C943891B0818401C84B22046E2E7000003400000FA
:400A8000F7B50446050210482E18B0B2FFF74AFC07460D48401C2D18A8B2FFF743FC3902401887B23A462046029B019900F0B2F90298381884B2210AB0B2FFF751FCE1B224
:400AC000A8B2FFF74DFCFEBD2440000010B5044601780120FFF744FC61780220FFF740FCA1780320FFF73CFCE1780420FFF738FC10BD10B501461920FFF732FC10BD10B559
:400B00000446010A1720FFF72BFCE1B21820FFF727FC10BD10B5044601780920FFF720FC61780A20FFF71CFCA1780B20FFF718FCE1780C20FFF714FC21790D20FFF710FCE5
:400B400061790E20FFF70CFC10BD10B5044601780F20FFF705FC61781020FFF701FCA1781120FFF7FDFBE1781220FFF7F9FB10BDF8B51D4616460C460746012909D0022C42
:400B800007D0032C05D0042C03D0052C01D00020F8BDFFF7E1FC2146294301203D028003281880B2FFF7DCFB13491348491C28186C18002E05D0310A80B2FFF7D1FBF1B203
:400BC00009E00E4E80B23188491C89B23180090AFFF7C6FB3178A0B2FFF7C2FB06480121C01E2C18A0B2FFF7BBFBA0B2FFF79AFB0028FAD10120F8BD04400000C40000209E
:400C000010B50120FFF7CEFB10BD10B50020FFF7C9FB10BD10B5FFF721FC10BD10B5FFF711FCFFF701FC0028FBD0FFF705FC40B210BD0000F3B501214F4881B0C903002649
:400C4000018003218903083035460180344601982702015D4948381880B2FFF781FB0298015D4648401E381880B2FFF779FB42490023103960000A460B5208321352012359
:400C80009B039E4229DC019B1B5D042B14D004DC012B07D0022B20D109E0082B11D0102B1BD113E001239B020B525B1E12E00123DB020B525B1E0DE001231B030B525B1E0D
:400CC00008E001235B030B525B1E03E001239B030B525B1E284F203F3B520127BF03BD4228DC029B1B5D042B14D004DC012B07D0022B1FD109E0082B11D0102B1AD113E0AB
:400D000001239B0213525B1E11E00123DB0213525B1E0CE001231B0313525B1E07E001235B0313525B1E02E0144B1752203B124F183F3B5217460B5A125A9B1952191EB28A
:400D400015B2002C11D00C4B4118C218203A2039D28BC98B511819520833C1182039CA8BC1192039C98B51181952641C24B2042C00DA6CE7FEBD0000F60000201F400000DD
:400D800010B5FFF7B1FA10BDF8B515460E4607460024FFF73AFF380AFFF7DCFAF8B2FFF7D9FA6804400EFFF7D5FAE8B2FFF7D2FA05E00020FFF7CEFA3055641CA4B2AC429C
:400DC000F7D3FFF71DFF2846F8BDF8B5002415460E460746002A10D0FFF717FF380AFFF7B9FAF8B2FFF7B6FA6804400E8030FFF7B1FAE8B2FFF7AEFA06E00020F8BD305D4B
:400E0000FFF7A8FA641CA4B2AC42F8D3FFF7F8FE2846F8BDF8B51D460E460746FFF7F0FB044614403846FFF7E5FB02193846FFF7EDFB6119884211D23846FFF7E7FB001BE9
:400E400084B290B222463146FFF7BFFF281B82B233193846FFF7CEFB194602E090B22A463146FFF7B2FFF8BD00300F40000400400F400004A40E000000000020C0000000F9
:400E800080010000640F0000C40000209400000080010000F80F000058010020180800009C0100000000000000000000000000000000000000000000000000000000000008
:400EC00000000000000000000000000000000000000000000000000000000000000000000000000000000000000000000000000000000000000000000000000000000000F2
:400F000000000000000000000000000000000000000000000000000000000000000000000000000000000000000000000000000000000000000000000000000000000000B1
:400F40000000000000000000000000000000000000000000000000000000000000000000000000000000000000000000000000000000000000000000000000000000000071
:400F80000000000000000000000000000000000000000000000000000000000000000000000000000000000050C2972904C0A80146C0A80179FFFFFF0002020202020202BF
:400FC00002C0A8016400B80B0000000000000000000000000000000000000000C0F1FF0F30000000006CDC0280BB00000000C05D00000000000000000000000000000000CE
:4010000000000000000000000000000000000000000000000000000000000000000000000000000000000000000000000000000000000000000000000000000000000000B0
:401040000000000000000000000000000000000000000000000000000000000000000000000000000000000000000000000000000000000000000000000000000000000070
:401080000000000000000000000000000000000000000000000000000000000000000000000000000000000000000000000000000000000000000000000000000000000030
:4010C00000000000000000000000000000000000000000000000000000000000000000000000000000000000000000000000000000000000000000000000000000000000F0
:0200000490303A
:02000000BFF44B
:0200000490402A
:200000000000000000000000000000000000000000000000000000000000000000000000E0
:0200000490501A
:0C000000000204C81193110104CDD18747
:0200000490600A
:0100000001FE
:00000001FF